:020000040800F2
:1000000000500020952000081D2000082520000831
:100010002D200008352000083D20000800000000C9
:100020000000000000000000000000004520000863
:1000300051200008000000005D2000086920000831
:10004000DD200008DD200008DD200008DD2000089C
:10005000DD200008DD200008DD200008DD2000088C
:10006000DD200008DD200008DD200008DD2000087C
:10007000DD200008DD200008DD200008DD2000086C
:10008000DD200008DD200008DD200008DD2000085C
:10009000DD200008DD200008DD200008DD2000084C
:1000A000DD200008DD200008DD200008DD2000083C
:1000B000DD200008DD20000875200008DD20000894
:1000C000DD200008DD200008DD200008DD2000081C
:1000D000DD200008DD200008DD200008DD2000080C
:1000E000DD200008DD200008DD2000080000000001
:1000F0000000000000000000000000000000000000
:0C01000000000000000000005FF808F1A3
:1001100010B5054C237833B9044B13B10448AFF341
:1001200000800123237010BD90000020000000001B
:100130004461000808B5034B1BB103490348AFF302
:10014000008008BD00000000940000204461000809
:1001500081F0004102E000BF83F0004330B54FEA78
:1001600041044FEA430594EA050F08BF90EA020FE5
:100170001FBF54EA000C55EA020C7FEA645C7FEA78
:10018000655C00F0E2804FEA5454D4EB5555B8BF9B
:100190006D420CDD2C4480EA020281EA030382EA0C
:1001A000000083EA010180EA020281EA0303362D9E
:1001B00088BF30BD11F0004F4FEA01314FF4801C71
:1001C0004CEA113102D0404261EB410113F0004F83
:1001D0004FEA03334CEA133302D0524263EB43033A
:1001E00094EA050F00F0A780A4F10104D5F1200ED8
:1001F0000DDB02FA0EFC22FA05F2801841F1000133
:1002000003FA0EF2801843FA05F359410EE0A5F106
:1002100020050EF1200E012A03FA0EFC28BF4CF037
:10022000020C43FA05F3C01851EBE37101F00045ED
:1002300007D54FF0000EDCF1000C7EEB00006EEBFA
:100240000101B1F5801F1BD3B1F5001F0CD3490884
:100250005FEA30004FEA3C0C04F101044FEA4452DB
:1002600012F5800F80F09A80BCF1004F08BF5FEA62
:10027000500C50F1000041EB045141EA050130BD42
:100280005FEA4C0C404141EB0101013C28BFB1F554
:10029000801FE9D291F0000F04BF01460020B1FA9F
:1002A00081F308BF2033A3F10B03B3F120020CDA72
:1002B0000C3208DD02F1140CC2F10C0201FA0CF050
:1002C00021FA02F10CE002F11402D8BFC2F1200CB5
:1002D00001FA02F120FA0CFCDCBF41EA0C0190406B
:1002E000E41AA2BF01EB0451294330BD6FEA0404B4
:1002F0001F3C1CDA0C340EDC04F11404C4F120029F
:1003000020FA04F001FA02F340EA030021FA04F3B0
:1003100045EA030130BDC4F10C04C4F1200220FA07
:1003200002F001FA04F340EA0300294630BD21FA45
:1003300004F0294630BD94F0000F83F4801306BF0B
:1003400081F480110134013D4EE77FEA645C18BFFF
:100350007FEA655C29D094EA050F08BF90EA020F96
:1003600005D054EA000C04BF1946104630BD91EA8E
:10037000030F1EBF0021002030BD5FEA545C05D191
:100380004000494128BF41F0004130BD14F58004D0
:100390003CBF01F5801130BD01F0004545F0FE4144
:1003A00041F470014FF0000030BD7FEA645C1ABF79
:1003B000194610467FEA655C1CBF0B46024650EAB0
:1003C000013406BF52EA033591EA030F41F40021DC
:1003D00030BD00BF90F0000F04BF0021704730B562
:1003E0004FF4806404F132044FF000054FF0000137
:1003F00050E700BF90F0000F04BF0021704730B5F8
:100400004FF4806404F1320410F0004548BF4042CC
:100410004FF000013EE700BF42004FEAE2014FEA21
:1004200031014FEA02701FBF12F07F4393F07F4FFC
:1004300081F06051704732F07F4208BF704793F0FF
:100440007F4F04BF41F40021704730B54FF4607412
:1004500001F0004521F000411CE700BF50EA010215
:1004600008BF704730B54FF000050AE050EA0102BE
:1004700008BF704730B511F0004502D5404261EB2E
:1004800041014FF4806404F132045FEA915C3FF46F
:10049000D8AE4FF003025FEADC0C18BF03325FEA0C
:1004A000DC0C18BF033202EBDC02C2F1200300FABD
:1004B00003FC20FA02F001FA03FE40EA0E0021FAE2
:1004C00002F11444BDE600BF70B54FF0FF0C4CF4D0
:1004D000E06C1CEA11541DBF1CEA135594EA0C0F82
:1004E00095EA0C0F00F0DEF82C4481EA030621EABD
:1004F0004C5123EA4C5350EA013518BF52EA0335F8
:1005000041F4801143F4801338D0A0FB02CE4FF0A9
:100510000005E1FB02E506F00042E0FB03E54FF0D9
:100520000006E1FB03569CF0000F18BF4EF0010ED1
:10053000A4F1FF04B6F5007F64F5407404D25FEACD
:100540004E0E6D4146EB060642EAC62141EA555180
:100550004FEAC52040EA5E504FEACE2EB4F1FD0CC2
:1005600088BFBCF5E06F1ED8BEF1004F08BF5FEA40
:10057000500E50F1000041EB045170BD06F00046F2
:1005800046EA010140EA020081EA0301B4EB5C049F
:10059000C2BFD4EB0C0541EA045170BD41F4801197
:1005A0004FF0000E013C00F3AB8014F1360FDEBFBC
:1005B000002001F0004170BDC4F10004203C35DA98
:1005C0000C341BDC04F11404C4F1200500FA05F31B
:1005D00020FA04F001FA05F240EA020001F00042BC
:1005E00021F0004110EBD37021FA04F642EB060132
:1005F0005EEA430E08BF20EAD37070BDC4F10C045C
:10060000C4F1200500FA04F320FA05F001FA04F21F
:1006100040EA020001F0004110EBD37041F100010B
:100620005EEA430E08BF20EAD37070BDC4F1200516
:1006300000FA05F24EEA020E20FA04F301FA05F27E
:1006400043EA020321FA04F001F0004121FA04F226
:1006500020EA020000EBD3705EEA430E08BF20EAF6
:10066000D37070BD94F0000F0FD101F00046400030
:1006700041EB010111F4801F08BF013CF7D041EAB2
:10068000060195F0000F18BF704703F000465200B6
:1006900043EB030313F4801F08BF013DF7D043EA87
:1006A0000603704794EA0C0F0CEA135518BF95EA3D
:1006B0000C0F0CD050EA410618BF52EA4306D1D1C4
:1006C00081EA030101F000414FF0000070BD50EAE3
:1006D000410606BF1046194652EA430619D094EA6D
:1006E0000C0F02D150EA013613D195EA0C0F05D157
:1006F00052EA03361CBF104619460AD181EA0301AB
:1007000001F0004141F0FE4141F470014FF0000062
:1007100070BD41F0FE4141F4780170BD70B54FF0FD
:10072000FF0C4CF4E06C1CEA11541DBF1CEA13557D
:1007300094EA0C0F95EA0C0F00F0A7F8A4EB05045F
:1007400081EA030E52EA03354FEA013100F0888056
:100750004FEA03334FF0805545EA131343EA12631F
:100760004FEA022245EA111545EA10654FEA0026D4
:100770000EF000419D4208BF964244F1FD0404F58D
:10078000407402D25B084FEA3202B61A65EB0305E9
:100790005B084FEA32024FF480104FF4002CB6EBA6
:1007A000020E75EB030E22BFB61A754640EA0C0026
:1007B0005B084FEA3202B6EB020E75EB030E22BF66
:1007C000B61A754640EA5C005B084FEA3202B6EBA7
:1007D000020E75EB030E22BFB61A754640EA9C0066
:1007E0005B084FEA3202B6EB020E75EB030E22BF36
:1007F000B61A754640EADC0055EA060E18D04FEAF4
:10080000051545EA16754FEA06164FEAC30343EA93
:1008100052734FEAC2025FEA1C1CC0D111F4801F60
:100820000BD141EA00014FF000004FF0004CB6E759
:1008300011F4801F04BF01430020B4F1FD0C88BFF8
:10084000BCF5E06F3FF6AFAEB5EB030C04BFB6EB03
:10085000020C5FEA500C50F1000041EB045170BDF6
:100860000EF0004E4EEA113114EB5C04C2BFD4EB23
:100870000C0541EA045170BD41F480114FF0000EA7
:10088000013C90E645EA060E8DE60CEA135594EA23
:100890000C0F08BF95EA0C0F3FF43BAF94EA0C0F26
:1008A0000AD150EA01347FF434AF95EA0C0F7FF49B
:1008B00025AF104619462CE795EA0C0F06D152EAEF
:1008C00003353FF4FDAE1046194622E750EA4106D3
:1008D00018BF52EA43067FF4C5AE50EA41047FF4E4
:1008E0000DAF52EA43057FF4EBAE12E74FF0FF3C49
:1008F00006E000BF4FF0010C02E000BF4FF0010C1A
:100900004DF804CD4FEA410C7FEA6C5C4FEA430C92
:1009100018BF7FEA6C5C1BD001B050EA410C0CBFE1
:1009200052EA430C91EA030F02BF90EA020F002043
:10093000704710F1000F91EA030F58BF994208BFAA
:1009400090422CBFD8176FEAE37040F00100704767
:100950004FEA410C7FEA6C5C02D150EA013C07D1BE
:100960004FEA430C7FEA6C5CD6D152EA033CD3D009
:100970005DF8040B704700BF8446104662468C4603
:100980001946634600E000BF01B5FFF7B7FF002836
:1009900048BF10F1000F01BD4DF808EDFFF7F4FF5F
:1009A0000CBF012000205DF808FB00BF4DF808EDEA
:1009B000FFF7EAFF34BF012000205DF808FB00BF0D
:1009C0004DF808EDFFF7E0FF94BF012000205DF82F
:1009D00008FB00BF4DF808EDFFF7CEFF94BF0120E4
:1009E00000205DF808FB00BF4DF808EDFFF7C4FFDD
:1009F00034BF012000205DF808FB00BF4FEA410C26
:100A00007FEA6C5C02D150EA013C0AD14FEA430C08
:100A10007FEA6C5C02D152EA033C02D14FF0000045
:100A200070474FF0010070474FEA410212F5001283
:100A300015D211D56FF47873B3EB625212D94FEA25
:100A4000C12343F0004343EA505311F0004F23FA0F
:100A500002F018BF404270474FF00000704750EA64
:100A6000013005D111F0004008BF6FF00040704721
:100A70004FF00000704700BF4A0011D212F500127B
:100A800011D20DD56FF47873B3EB62520ED44FEAE6
:100A9000C12343F0004343EA505323FA02F0704766
:100AA0004FF00000704750EA013002D14FF0FF30A4
:100AB00070474FF0000070474FEA4102B2F1E04347
:100AC00024BFB3F5001CDCF1FE5C0DD901F0004C35
:100AD0004FEAC0024CEA5070B2F1004F40EB830085
:100AE00008BF20F00100704711F0804F21D113F1B1
:100AF0003872BCBF01F00040704741F480114FEAEA
:100B00005252C2F11802C2F1200C10FA0CF320FA72
:100B100002F018BF40F001004FEAC1234FEAD3238F
:100B200003FA0CFC40EA0C0023FA02F34FEA4303F9
:100B3000CCE77FEA625307D150EA01331EBF4FF082
:100B4000FE4040F44000704701F0004040F0FE409D
:100B500040F40000704700BF80F0004002E000BF9A
:100B600081F0004142001FBF5FEA410392EA030F98
:100B70007FEA226C7FEA236C6AD04FEA1262D2EBE2
:100B80001363C1BFD218414048404140B8BF5B42E7
:100B9000192B88BF704710F0004F40F4000020F080
:100BA0007F4018BF404211F0004F41F4000121F096
:100BB0007F4118BF494292EA030F3FD0A2F10102E0
:100BC00041FA03FC10EB0C00C3F1200301FA03F11E
:100BD00000F0004302D5494260EB4000B0F5000F41
:100BE00013D3B0F1807F06D340084FEA310102F100
:100BF0000102FE2A51D2B1F1004F40EBC25008BFB2
:100C000020F0010040EA03007047490040EB00007B
:100C1000013A28BFB0F5000FEDD2B0FA80FCACF17C
:100C2000080CB2EB0C0200FA0CF0AABF00EBC250A9
:100C300052421843BCBFD0401843704792F0000F97
:100C400081F4000106BF80F400000132013BB5E7EA
:100C50004FEA41037FEA226C18BF7FEA236C21D060
:100C600092EA030F04D092F0000F08BF08467047C5
:100C700090EA010F1CBF0020704712F07F4F04D193
:100C8000400028BF40F00040704712F100723CBFA6
:100C900000F50000704700F0004343F0FE4040F4D0
:100CA000000070477FEA226216BF08467FEA23638E
:100CB0000146420206BF5FEA412390EA010F40F479
:100CC000800070474FF0000304E000BF10F00043C5
:100CD00048BF40425FEA000C08BF704743F09643AC
:100CE00001464FF000001CE050EA010208BF7047C7
:100CF0004FF000030AE000BF50EA010208BF70474E
:100D000011F0004302D5404261EB41015FEA010C62
:100D100002BF84460146002043F0B64308BFA3F15A
:100D20008053A3F50003BCFA8CF2083AA3EBC2533C
:100D300010DB01FA02FC634400FA02FCC2F120025B
:100D4000BCF1004F20FA02F243EB020008BF20F092
:100D50000100704702F1200201FA02FCC2F12002F8
:100D600050EA4C0021FA02F243EB020008BF20EAED
:100D7000DC7070474FF0FF0C1CEAD0521EBF1CEA1B
:100D8000D15392EA0C0F93EA0C0F6FD01A4480EA09
:100D9000010C400218BF5FEA41211ED04FF00063F2
:100DA00043EA501043EA5111A0FB01310CF000401E
:100DB000B1F5000F3EBF490041EAD3715B0040EA44
:100DC000010062F17F02FD2A1DD8B3F1004F40EB14
:100DD000C25008BF20F00100704790F0000F0CF0E7
:100DE000004C08BF49024CEA502040EA51207F3AAB
:100DF000C2BFD2F1FF0340EAC250704740F4000086
:100E00004FF00003013A5DDC12F1190FDCBF00F076
:100E100000407047C2F10002410021FA02F1C2F124
:100E2000200200FA02FC5FEA310040F1000053EAC0
:100E30004C0308BF20EADC70704792F0000F00F00E
:100E4000004C02BF400010F4000F013AF9D040EA14
:100E50000C0093F0000F01F0004C02BF490011F4A8
:100E6000000F013BF9D041EA0C018FE70CEAD153A6
:100E700092EA0C0F18BF93EA0C0F0AD030F0004C26
:100E800018BF31F0004CD8D180EA010000F00040DA
:100E9000704790F0000F17BF90F0004F084691F098
:100EA000000F91F0004F14D092EA0C0F01D14202D2
:100EB0000FD193EA0C0F03D14B0218BF084608D19B
:100EC00080EA010000F0004040F0FE4040F40000E5
:100ED000704740F0FE4040F4400070474FF0FF0C78
:100EE0001CEAD0521EBF1CEAD15392EA0C0F93EABF
:100EF0000C0F69D0A2EB030280EA010C49024FEA11
:100F0000402037D04FF0805343EA111143EA1013C9
:100F10000CF000408B4238BF5B0042F17D024FF481
:100F2000000C8B4224BF5B1A40EA0C00B3EB510F5C
:100F300024BFA3EB510340EA5C00B3EB910F24BF45
:100F4000A3EB910340EA9C00B3EBD10F24BFA3EBCA
:100F5000D10340EADC001B0118BF5FEA1C1CE0D192
:100F6000FD2A3FF650AF8B4240EBC25008BF20F045
:100F7000010070470CF0004C4CEA50207F32C2BF99
:100F8000D2F1FF0340EAC250704740F400004FF036
:100F90000003013A37E792F0000F00F0004C02BF67
:100FA000400010F4000F013AF9D040EA0C0093F031
:100FB000000F01F0004C02BF490011F4000F013B8B
:100FC000F9D041EA0C0195E70CEAD15392EA0C0FF3
:100FD00008D142027FF47DAF93EA0C0F7FF470AF2B
:100FE000084676E793EA0C0F04D14B023FF44CAF6E
:100FF00008466EE730F0004C18BF31F0004CCAD103
:1010000030F000427FF45CAF31F000437FF43CAF3E
:101010005FE700BF4FEA4002B2F1FE4F0FD34FF03F
:101020009E03B3EB12620DD94FEA002343F0004355
:1010300010F0004F23FA02F018BF404270474FF003
:101040000000704712F1610F01D1420205D110F08A
:10105000004008BF6FF0004070474FF0000070473D
:1010600080B586B004AF4FF47A73029301230193E5
:10107000FB1D009301237522D021234801F09EFD22
:10108000FB79682B3BD10023BB714FF47A73029339
:1010900001230193BB1D009301236B22D0211A4829
:1010A00001F092FC0723BB714FF47A730293012382
:1010B0000193BB1D009301231922D021124801F096
:1010C00083FC0023BB714FF47A73029301230193D5
:1010D000BB1D009301231B22D0210B4801F074FC9F
:1010E0000023BB714FF47A73029301230193BB1D5C
:1010F000009301231C22D021034801F065FC00BFAE
:101100000837BD4680BD00BFAC00002080B586B06A
:1011100004AF4FF47A730293062301933B46009386
:1011200001233B22D021284801F048FD3B781B02D7
:101130001AB27B781BB213431AB2244B1A80BB78C5
:101140001B021AB2FB781BB213431AB2204B1A804F
:101150003B791B021AB27B791BB213431AB21D4BA7
:101160001A801A4BB3F900301846FFF7AFFD03465B
:101170004FF08D411846FFF7B1FE03461A46164B55
:101180001A60134BB3F900301846FFF79FFD034672
:1011900012491846FFF7A2FE03461A46104B1A6082
:1011A0000C4BB3F900301846FFF790FD03464FF0A3
:1011B0008D411846FFF792FE03461A46094B1A6006
:1011C00000BF0837BD4680BDAC0000209001002064
:1011D00092010020940100209801002000848346A1
:1011E0009C010020A001002080B588B004AF4FF41E
:1011F0007A730293062301933B1D0093012343223C
:10120000D021234801F0DAFC3B791B021AB27B792A
:101210001BB21343FB81BB791B021AB2FB791BB2D1
:101220001343BB813B7A1B021AB27B7A1BB2134376
:101230007B81B7F90E301846FFF748FD0346154984
:101240001846FFF74BFE03461A46134B1A60B7F9D0
:101250000C301846FFF73AFD03460E491846FFF7D3
:101260003DFE03461A460D4B1A60B7F90A30184680
:10127000FFF72CFD034607491846FFF72FFE0346EC
:101280001A46074B1A6000BF1037BD4680BD00BF2D
:10129000AC00002000000343A4010020A8010020AE
:1012A000AC01002080B584B000AF32233B60002346
:1012B000FB810023BB8100237B8100237B603DE019
:1012C000FFF792FFB7F90E301846FFF7FFFC024612
:1012D0002F4B1B6819461046FFF744FC034618467F
:1012E000FFF798FE0346FB81B7F90C301846FFF76D
:1012F000EDFC0246274B1B6819461046FFF732FCEF
:1013000003461846FFF786FE0346BB81B7F90A304D
:101310001846FFF7DBFC02461F4B1B6819461046B8
:10132000FFF720FC03461846FFF774FE03467B8157
:101330000A2000F037FF7B6801337B607A683B68E6
:101340009A42BDDBB7F90E203B6892FBF3F31846D7
:10135000FFF7BCFC0346114A1360B7F90C203B6849
:1013600092FBF3F31846FFF7B1FC03460C4A1360F7
:10137000B7F90A203B6892FBF3F31846FFF7A6FC87
:101380000346084A136000BF1037BD4680BD00BF4A
:10139000A4010020A8010020AC010020B801002019
:1013A000BC010020C001002080B584B000AF322312
:1013B0003B600023FB810023BB8100237B81002352
:1013C0007B603DE0FFF7A2FEB7F90E301846FFF74D
:1013D0007DFC02462F4B1B6819461046FFF7C2FBE7
:1013E00003461846FFF716FE0346FB81B7F90C309B
:1013F0001846FFF76BFC0246274B1B681946104640
:10140000FFF7B0FB03461846FFF704FE0346BB8117
:10141000B7F90A301846FFF759FC02461F4B1B6804
:1014200019461046FFF79EFB03461846FFF7F2FDEC
:1014300003467B810A2000F0B5FE7B6801337B60A8
:101440007A683B689A42BDDBB7F90E203B6892FB95
:10145000F3F31846FFF73AFC0346114A1360B7F955
:101460000C203B6892FBF3F31846FFF72FFC034672
:101470000C4A1360B7F90A203B6892FBF3F3184655
:10148000FFF724FC0346084A136000BF1037BD462F
:1014900080BD00BF980100209C010020A001002019
:1014A000C4010020C8010020CC01002080B582B01A
:1014B00000AF786039607B68DBB21A464FF4804138
:1014C000074801F025F93B68DBB21A464FF400519A
:1014D000034801F01DF900BF0837BD4680BD00BFBD
:1014E000000C014080B582B000AF786039607B6845
:1014F000DBB21A464FF40041074801F009F93B6896
:10150000DBB21A464FF48051034801F001F900BFE5
:101510000837BD4680BD00BF000C01400000000040
:101520002DE9B04382B000AF78607B681B689E4AAB
:10153000934240F07882FFF7E9FD9C4B1B689C4A80
:10154000126811461846FFF70BFB03461A46974BE5
:101550001A60984B1B68984A126811461846FFF7A4
:10156000FFFA03461A46934B1A60944B1B68944A41
:10157000126811461846FFF7F3FA03461A468F4BD6
:101580001A608C4B1B6883F000431846FEF744FF3B
:1015900004460D46854B1B681846FEF73DFF4FF08D
:1015A00000024FF0804303F00BFD80468946834BD9
:1015B0001B681846FEF730FF4FF000024FF08043E3
:1015C00003F0FEFC02460B4640464946FEF7C6FDC8
:1015D00002460B461046194603F05AFD02460B46DA
:1015E00020462946FFF79AF802460B461046194650
:1015F00003F072FD4FF00002724BFEF765FF0246EA
:101600000B461046194666A3D3E90023FFF786F878
:1016100002460B4610461946FFF74EFA03466A4A41
:1016200013606A4B1B686A4A136000F0B1FD034601
:101630001846FFF747FB0346644A1360634B1B6879
:10164000634A126811461846FFF78AFA0346614951
:101650001846FFF743FC03461A465F4B1A60FFF734
:10166000C3FD5E4B1B685E4A126811461846FFF7C1
:1016700077FA03461A46594B1A60584B1B68564A6C
:10168000126811461846FFF775FB03461A46554B7C
:101690001B6819461046FFF765FA03461A46514B78
:1016A0001A60514B1B681846FEF7B6FE04460D46FD
:1016B0004A4B1B68484A126811461846FFF75AFB06
:1016C00003461846FEF7A8FE484BD3E90023FEF771
:1016D00045FD02460B4620462946FEF7F5FE02462A
:1016E0000B4614461D46404B1B6819464FF07E5072
:1016F000FFF736FA03461A46334B1B681946104665
:10170000FFF738FB03461846FEF786FE02460B46F7
:1017100020462946FEF722FD02460B463349C1E921
:10172000002301231846FEF765FE304BD3E9002362
:10173000FEF712FD02460B462D49C1E900232C4B52
:10174000D3E900452B4B1B681846FEF753FE0246B3
:101750000B4620462946FEF7E1FF02460B4610469F
:101760001946254BD3E90023FEF7F8FC02460B4649
:101770002149C1E90023204BD3E900014FF00002C9
:101780001E4BFFF731F90346002B39D01A494FF0B1
:1017900000021A4BC1E9002343E000BFAFF3008011
:1017A000EA2E4454FB210940000800409801002023
:1017B000C40100209C010020C8010020A0010020DD
:1017C000CC01002000806640B00100200002002013
:1017D0000802002000007A4404020020A401002036
:1017E000B8010020B401002000000020D00100203A
:1017F000E801002020000020F001002000005440FB
:101800008D4BD3E900014FF000028C4BFFF7CEF86F
:101810000346002B05D088494FF00002874BC1E9F1
:101820000023874BD3E90001864BD3E90023FEF761
:1018300093FC02460B4614461D46834B1B68184614
:10184000FEF7D8FD02460B4620462946FEF73CFE31
:1018500002460B467D49C1E900237D4BD3E90001D7
:10186000774BD3E90023FEF72FFE02460B461446C2
:101870001D46784BD3E900016F4BD3E90023FEF7F7
:1018800023FE02460B4620462946FEF767FC024629
:101890000B4614461D46704BD3E900016B4BD3E950
:1018A0000023FEF711FE02460B4620462946FEF7AE
:1018B00055FC02460B466949C1E90023604BD3E958
:1018C00000236049C1E90023644BD3E900014FF0D4
:1018D0000002634BFFF788F80346002B06D05F49F0
:1018E0004FF000025E4BC1E9002310E05B4BD3E9EF
:1018F00000014FF00002514BFFF758F80346002B50
:1019000005D056494FF000024C4BC1E900234C4B27
:10191000D3E900014FF000024FF00003FFF746F853
:101920000346002B40D001210120FFF7BFFD00211D
:101930000020FFF7D7FD494BD3E900231046194695
:10194000FFF772F80346002BB8BF5B421846FEF75C
:1019500051FD37A3D3E90023FEF7B6FD02460B463F
:10196000404C10461946FFF787F8034663633B4B2C
:10197000D3E9002310461946FFF756F80346002B1B
:10198000B8BF5B421846FEF735FD29A3D3E9002313
:10199000FEF79AFD02460B46324C10461946FFF7F9
:1019A0006BF8034623643EE0254BD3E900014FF07A
:1019B00000024FF00003FFF717F80346002B24D076
:1019C00000210020FFF772FD01210120FFF78AFDB1
:1019D000224BD3E9002310461946FFF725F80346AA
:1019E00083EAE372A2EBE3721E4B5A631B4BD3E90B
:1019F000002310461946FFF717F8034683EAE372FF
:101A0000A2EBE372174B1A640DE001210120FFF7EE
:101A10004DFD01210120FFF765FD124B00225A63A5
:101A2000104B00221A6400BF0837BD46BDE8B083E2
:101A3000CDCCCCCCCCCCEC3FF0010020000054C08D
:101A4000E8010020E001002020000020F801002033
:101A5000080000201000002018000020D8010020FD
:101A600000005440002C014080B500AF00F038FB6E
:101A700000F024F800F090F900F066F800F092F819
:101A800000F03CF900210B4802F0B6FB0C2109489C
:101A900002F0B2FBFFF7E4FA4FF47A7000F082FB39
:101AA000FFF700FCFFF780FC034802F0FBFA00BFE1
:101AB000FDE700BF000100204801002080B590B084
:101AC00000AF07F1180328220021184603F045FA59
:101AD0003B1D00221A605A609A60DA601A61012385
:101AE000BB614FF48033FB6100233B620123BB6287
:101AF00002237B634FF48033BB634FF4E013FB633B
:101B000007F11803184601F081FE0346002B01D0AF
:101B100000F08EF90F237B600223BB600023FB6083
:101B20004FF480633B6100237B613B1D022118461B
:101B300002F0EEF80346002B01D000F079F900BF67
:101B40004037BD4680BD000080B500AF124B134A40
:101B50001A60114B124A5A600F4B00229A600E4BCA
:101B60000022DA600C4B4FF480421A610A4B0022CB
:101B70005A61094B00229A61074B0022DA61064B39
:101B800000221A62044800F0DBFD0346002B01D05E
:101B900000F04EF900BF80BDAC00002000540040B2
:101BA000801A060080B596B000AF07F14803002206
:101BB0001A605A609A60DA6007F1400300221A60E6
:101BC0005A6007F1240300221A605A609A60DA60B2
:101BD0001A615A619A613B1D20220021184603F0C8
:101BE000BCF9444B444A1A60424B08225A60414BAC
:101BF00000229A603F4B6322DA603E4B00221A615A
:101C00003C4B00225A613B4B00229A61394802F05A
:101C1000F9F90346002B01D000F00AF94FF4805384
:101C2000BB6407F148031946324802F039FD034608
:101C3000002B01D000F0FCF82E4802F085FA034694
:101C4000002B01D000F0F4F800233B6400237B64F8
:101C500007F140031946274803F0BEF80346002B5E
:101C600001D000F0E5F860237B620023BB62002313
:101C7000FB6200233B6300237B630023BB630023E1
:101C8000FB6307F12403002219461A4802F046FCC0
:101C90000346002B01D000F0CBF807F124030C22FF
:101CA0001946144802F03AFC0346002B01D000F01C
:101CB000BFF800237B600023BB600023FB60002390
:101CC0003B6100237B614FF40053BB6100233B6207
:101CD0003B1D1946074803F0DDF80346002B01D0F1
:101CE00000F0A6F8034800F065F900BF5837BD467C
:101CF00080BD00BF00010020002C014080B586B0EF
:101D000000AF07F1080300221A605A609A60DA6097
:101D10003B4600221A605A601D4B1E4A1A601C4B3B
:101D200040F2CF225A601A4B00229A60184B31229F
:101D3000DA60174B00221A61154B00229A61144891
:101D400002F060F90346002B01D000F071F84FF467
:101D50008053BB6007F1080319460D4802F0A0FC50
:101D60000346002B01D000F063F800233B60002302
:101D70007B603B461946064803F02EF80346002BCD
:101D800001D000F055F800BF1837BD4680BD00BF38
:101D9000480100200008004080B588B000AF07F17E
:101DA000100300221A605A609A60DA601E4B9B6929
:101DB0001D4A43F0200393611B4B9B6903F02003F2
:101DC000FB60FB68184B9B69174A43F0080393615B
:101DD000154B9B6903F00803BB60BB68124B9B6902
:101DE000114A43F0040393610F4B9B6903F0040312
:101DF0007B607B6800224FF470410C4800F088FC47
:101E00004FF470433B6101237B610023BB610223DC
:101E1000FB6107F110031946044800F0F5FA00BF12
:101E20002037BD4680BD00BF00100240000C0140BD
:101E300080B400AF72B600BF00BFFDE780B485B0CC
:101E400000AF154B9B69144A43F001039361124B99
:101E50009B6903F00103BB60BB680F4BDB690E4A53
:101E600043F08053D3610C4BDB6903F080537B60FC
:101E70007B680A4B5B68FB60FB6823F0E063FB60F8
:101E8000FB6843F00073FB60044AFB68536000BFCB
:101E90001437BD4680BC704700100240000001406E
:101EA00080B58AB000AF786007F1140300221A6091
:101EB0005A609A60DA607B681B681D4A934232D18F
:101EC0001C4B9B691B4A43F008039361194B9B69A8
:101ED00003F008033B613B694FF440737B611223BD
:101EE000BB6103233B6207F114031946124800F05B
:101EF0008BFA124B5B687B627B6A43F0E0637B6228
:101F00007B6A43F002037B620C4A7B6A5360094B95
:101F1000DB69084A43F40013D361064BDB6903F421
:101F20000013FB60FB6800BF2837BD4680BD00BFC3
:101F30000054004000100240000C0140000001402D
:101F400080B584B000AF78607B681B68164A934206
:101F50000CD1164B9B69154A43F400639361134BF4
:101F60009B6903F40063FB60FB6818E07B681B68F7
:101F70000F4A934213D10D4BDB690C4A43F0040323
:101F8000D3610A4BDB6903F00403BB60BB6800222A
:101F900000211E2000F001FA1E2000F01AFA00BFF6
:101FA0001037BD4680BD00BF002C0140001002402C
:101FB0000008004080B588B000AF786007F11003DA
:101FC00000221A605A609A60DA607B681B68104AC7
:101FD000934218D10F4B9B690E4A43F0040393615F
:101FE0000C4B9B6903F00403FB60FB684FF4106328
:101FF0003B6102237B610223FB6107F11003194659
:10200000054800F001FA00BF2037BD4680BD00BF83
:10201000002C0140001002400008014080B400AFD5
:1020200000BFFDE780B400AF00BFFDE780B400AFA4
:1020300000BFFDE780B400AF00BFFDE780B400AF94
:1020400000BFFDE780B400AF00BFBD4680BC704755
:1020500080B400AF00BFBD4680BC704780B400AF05
:1020600000BFBD4680BC704780B500AF00F07EF871
:1020700000BF80BD80B500AF024802F05FF900BF2D
:1020800080BD00BF4801002080B400AF00BFBD4646
:1020900080BC7047FFF7F8FF0B480C490C4A00233F
:1020A00002E0D458C4500433C4188C42F9D3094A0E
:1020B000094C002301E013600432A242FBD302F07A
:1020C0005BFFFFF7D1FC704700000020900000206C
:1020D000086200089000002048030020FEE700008E
:1020E00080B500AF084B1B68074A43F0100313602C
:1020F000032000F047F90F2000F008F8FFF79EFEDC
:102100000023184680BD00BF0020024080B582B089
:1021100000AF7860124B1A68124B1B7819464FF4C7
:102120007A73B3FBF1F3B2FBF3F3184600F05FF9F7
:102130000346002B01D001230EE07B680F2B0AD849
:10214000002279684FF0FF3000F027F9064A7B68DB
:102150001360002300E0012318460837BD4680BD08
:10216000240000202C0000202800002080B400AFB4
:10217000054B1B781A46054B1B681344034A136032
:1021800000BFBD4680BC70472C0000200C02002020
:1021900080B400AF024B1B681846BD4680BC704738
:1021A0000C02002080B584B000AF7860FFF7F0FF2C
:1021B000B8607B68FB60FB68B3F1FF3F05D00A4B5A
:1021C0001B781A46FB681344FB6000BFFFF7E0FF73
:1021D0000246BB68D31AFA689A42F7D800BF00BF1C
:1021E0001037BD4680BD00BF2C00002080B485B0F4
:1021F00000AF78607B6803F00703FB600C4BDB6883
:10220000BB60BA684FF6FF031340BB60FB681A025D
:10221000BB68134343F0BF6343F40033BB60044A1D
:10222000BB68D36000BF1437BD4680BC704700BF99
:1022300000ED00E080B400AF044BDB681B0A03F044
:1022400007031846BD4680BC704700BF00ED00E0A4
:1022500080B483B000AF0346FB7197F90730002BC1
:102260000BDBFB7903F01F02064997F907305B0986
:10227000012000FA02F241F8232000BF0C37BD46CE
:1022800080BC704700E100E080B483B000AF03463B
:102290003960FB7197F90730002B0ADB3B68DAB233
:1022A0000C4997F907301201D2B20B4483F800238E
:1022B0000AE03B68DAB20849FB7903F00F03043BFC
:1022C0001201D2B20B441A7600BF0C37BD4680BC57
:1022D000704700BF00E100E000ED00E080B489B08D
:1022E00000AFF860B9607A60FB6803F00703FB6138
:1022F000FB69C3F10703042B28BF0423BB61FB69FF
:102300000433062B02D9FB69033B00E000237B6109
:102310004FF0FF32BB6902FA03F3DA43BB681A409D
:102320007B699A404FF0FF317B6901FA03F3D9438F
:102330007B680B40134318462437BD4680BC70476A
:1023400080B582B000AF78607B68013BB3F1807FDD
:1023500001D301230FE00A4A7B68013B53600F2140
:102360004FF0FF30FFF790FF054B00229A60044BBF
:1023700007221A60002318460837BD4680BD00BFFB
:1023800010E000E080B582B000AF78607868FFF7B9
:102390002DFF00BF0837BD4680BD80B586B000AFB9
:1023A0000346B9607A60FB7300237B61FFF742FF4D
:1023B00078617A68B9687869FFF790FF024697F903
:1023C0000F3011461846FFF75FFF00BF1837BD46B4
:1023D00080BD80B582B000AF0346FB7197F907302E
:1023E0001846FFF735FF00BF0837BD4680BD80B5F2
:1023F00082B000AF78607868FFF7A2FF0346184606
:102400000837BD4680BD000080B48BB000AF786057
:10241000396000237B6200233B6269E101227B6A11
:1024200002FA03F3FB613B681B68FA691340BB6166
:10243000BA69FB699A4240F058813B685B689A4AE6
:1024400093425ED0984A934275D8984A934258D0A6
:10245000964A93426FD8964A934252D0944A9342F6
:1024600069D8944A93424CD0924A934263D8924A94
:10247000934246D0904A93425DD8122B2AD8122B11
:1024800059D801A252F823F003250008DD240008E2
:10249000EF240008312500083725000837250008FB
:1024A000372500083725000837250008372500089C
:1024B000372500083725000837250008372500088C
:1024C000372500083725000837250008E5240008CF
:1024D000F9240008794A934213D02CE03B68DB686A
:1024E0003B6229E03B68DB6804333B6224E03B68E5
:1024F000DB6808333B621FE03B68DB680C333B6200
:102500001AE03B689B68002B02D104233B6213E076
:102510003B689B68012B05D108233B627B68FA6905
:102520001A6109E008233B627B68FA695A6103E09B
:1025300000233B6200E000BFBB69FF2B01D87B6832
:1025400001E07B6804337B61BB69FF2B02D87B6AA7
:102550009B0002E07B6A083B9B003B617B691A6839
:102560000F213B6901FA03F3DB431A40396A3B69E7
:1025700001FA03F31A437B691A603B685B6803F056
:102580008053002B00F0B1804D4B9B694C4A43F0C7
:10259000010393614A4B9B6903F00103BB60BB6875
:1025A000484A7B6A9B08023352F82330FB607B6AFF
:1025B00003F003039B000F2202FA03F3DB43FA68E4
:1025C0001340FB607B68404A934213D07B683F4ACC
:1025D00093420DD07B683E4A934207D07B683D4AC8
:1025E000934201D1032306E0042304E0022302E026
:1025F000012300E000237A6A02F003029200934074
:10260000FA681343FB602F497B6A9B080233FA6820
:1026100041F823203B685B6803F48013002B06D04D
:102620002D4B9A682C49BB6913438B6006E02A4BFB
:102630009A68BB69DB43284913408B603B685B6841
:1026400003F40013002B06D0234BDA682249BB6940
:102650001343CB6006E0204BDA68BB69DB431E49BD
:102660001340CB603B685B6803F40033002B06D05B
:10267000194B5A681849BB6913434B6006E0164B67
:102680005A68BB69DB43144913404B603B685B6885
:1026900003F48033002B21D00F4B1A680E49BB691D
:1026A00013430B6021E000BF000032100000311026
:1026B0000000221000002110000012100000111074
:1026C000001002400000014000080140000C0140E1
:1026D0000010014000140140000401400B4B1A6837
:1026E000BB69DB43094913400B607B6A01337B62A2
:1026F0003B681A687B6A22FA03F3002B7FF48EAEE4
:1027000000BF00BF2C37BD4680BC704700040140AD
:1027100080B483B000AF78600B467B8013467B703B
:102720007B78002B03D07A887B681A6103E07B8872
:102730001A047B681A6100BF0C37BD4680BC704725
:1027400080B584B000AF78607B68002B01D1012395
:102750002BE17B6893F83D30DBB2002B06D17B6820
:10276000002283F83C207868FFF79AFB7B682422DC
:1027700083F83D207B681B681A687B681B6822F021
:1027800001021A607B681B681A687B681B6842F448
:1027900000421A607B681B681A687B681B6822F419
:1027A00000421A6001F0FCFBF8607B685B68814ABC
:1027B000934207D8FB68804A934294BF01230023C9
:1027C000DBB206E0FB687D4A934294BF01230023FD
:1027D000DBB2002B01D00123E7E0FB68784AA2FBC3
:1027E00003239B0CBB607B681B685B6823F03F0185
:1027F0007B681B68BA680A435A607B681B681B6A5F
:1028000023F03F017B685B686A4A934202D8BB6849
:10281000013309E0BB684FF4967202FB03F3694A87
:10282000A2FB03239B0901337A6812680B431362EE
:102830007B681B68DB6923F44F4222F0FF027B6850
:102840005B685C498B4219D8FB68591E7B685B68E2
:102850005B00B1FBF3F3591C40F6FC730B40002BFB
:102860000AD0FB68591E7B685B685B00B1FBF3F321
:102870000133C3F30B0351E004234FE07B689B68F3
:10288000002B11D1FB68581E7B6859680B465B0012
:102890000B44B0FBF3F30133C3F30B03002B0CBF6A
:1028A00001230023DBB212E0FB68581E7B685968E5
:1028B0000B469B000B4499000B44B0FBF3F3013330
:1028C000C3F30B03002B0CBF01230023DBB2002B4F
:1028D00001D0012322E07B689B68002B0ED1FB68AE
:1028E000581E7B6859680B465B000B44B0FBF3F342
:1028F0000133C3F30B0343F400430FE0FB68581E9E
:102900007B6859680B469B000B4499000B44B0FB55
:10291000F3F30133C3F30B0343F4404379680968CD
:102920001343CB617B681B681B6823F0C0017B6885
:10293000DA697B681B6A1A437B681B680A431A6062
:102940007B681B689B6823F4034323F0FF037A68CA
:1029500011697A68D26811437A6812680B439360F0
:102960007B681B68DB6823F0FF017B685A697B6822
:102970009B691A437B681B680A43DA607B681B68A3
:102980001A687B681B6842F001021A607B680022AB
:102990001A647B68202283F83D207B6800221A633A
:1029A0007B68002283F83E20002318461037BD467E
:1029B00080BD00BFA08601007F841E00FF083D008F
:1029C00083DE1B43D34D621080B588B002AFF86040
:1029D000084611461A4603467B810B463B81134647
:1029E000FB80FFF7D5FB7861FB6893F83D30DBB2E5
:1029F000202B40F0D9807B690093192301226D4977
:102A0000F86800F0CDFC0346002B01D00223CCE097
:102A1000FB6893F83C30012B01D10223C5E0FB6831
:102A2000012283F83C20FB681B681B6803F001034C
:102A3000012B07D0FB681B681A68FB681B6842F013
:102A400001021A60FB681B681A68FB681B6822F4A5
:102A500000621A60FB68212283F83D20FB68402257
:102A600083F83E20FB6800221A64FB683A6A5A62C7
:102A7000FB68BA8C5A85FB685B8D9AB2FB681A8535
:102A8000FB684D4ADA62F8883A8979897B69019353
:102A9000BB6A00930346F86800F004FB0346002B72
:102AA00052D0012381E07A69B96AF86800F092FD9A
:102AB0000346002B0DD0FB681B6C042B07D1FB6871
:102AC0001B681A68FB681B6842F400721A600123D5
:102AD0006BE0FB685B6A1A78FB681B681A61FB682D
:102AE0005B6A5A1CFB685A62FB681B8D013B9AB2F9
:102AF000FB681A85FB685B8D9BB2013B9AB2FB6851
:102B00005A85FB681B685B6903F00403042B1BD127
:102B1000FB681B8D002B17D0FB685B6A1A78FB687B
:102B20001B681A61FB685B6A5A1CFB685A62FB6887
:102B30001B8D013B9AB2FB681A85FB685B8D9BB2CB
:102B4000013B9AB2FB685A85FB681B8D002BAAD10A
:102B50007A69B96AF86800F085FD0346002B0DD04C
:102B6000FB681B6C042B07D1FB681B681A68FB68A9
:102B70001B6842F400721A60012316E0FB681B68B0
:102B80001A68FB681B6842F400721A60FB68202216
:102B900083F83D20FB68002283F83E20FB6800227A
:102BA00083F83C20002300E0022318461837BD4676
:102BB00080BD00BF020010000000FFFF80B58CB098
:102BC00002AFF860084611461A4603467B810B4661
:102BD0003B811346FB8000233B62FFF7D9FA786202
:102BE000FB6893F83D30DBB2202B40F050827B6ACB
:102BF0000093192301228249F86800F0D1FB0346B3
:102C0000002B01D0022343E2FB6893F83C30012BF8
:102C100001D102233CE2FB68012283F83C20FB68DF
:102C20001B681B6803F00103012B07D0FB681B68BE
:102C30001A68FB681B6842F001021A60FB681B6897
:102C40001A68FB681B6822F400621A60FB68222283
:102C500083F83D20FB68402283F83E20FB68002279
:102C60001A64FB683A6B5A62FB68BA8E5A85FB6835
:102C70005B8D9AB2FB681A85FB68624ADA62F88853
:102C80003A8979897B6A0193BB6B00930346F868A4
:102C900000F09EFA0346002B01D00123F8E1FB6807
:102CA0001B8D002B13D10023FB61FB681B685B6944
:102CB000FB61FB681B689B69FB61FB69FB681B6828
:102CC0001A68FB681B6842F400721A60CCE1FB686A
:102CD0001B8D012B1ED1FB681B681A68FB681B68E3
:102CE00022F480621A6072B600BF0023BB61FB68E9
:102CF0001B685B69BB61FB681B689B69BB61BB6947
:102D0000FB681B681A68FB681B6842F400721A6053
:102D100062B635E0FB681B8D022B1ED1FB681B6879
:102D20001A68FB681B6842F400621A6072B600BF42
:102D300000237B61FB681B685B697B61FB681B6828
:102D40009B697B617B69FB681B681A68FB681B6871
:102D500022F480621A6062B612E0FB681B681A688F
:102D6000FB681B6842F480621A6000233B61FB68C9
:102D70001B685B693B61FB681B689B693B613B6946
:102D800072E1FB681B8D032B00F21F81FB681B8D1A
:102D9000012B23D17A6AB96BF86800F0ABFC0346CB
:102DA000002B01D0012373E1FB681B681A69FB68E3
:102DB0005B6AD2B21A70FB685B6A5A1CFB685A6283
:102DC000FB681B8D013B9AB2FB681A85FB685B8D23
:102DD0009BB2013B9AB2FB685A8545E1FB681B8DAB
:102DE000022B52D17B6A0093BB6B00220649F86824
:102DF00000F0D6FA0346002B08D0012348E100BFBB
:102E0000020010000000FFFF0400010072B600BFC6
:102E1000FB681B681A68FB681B6842F400721A6042
:102E2000FB681B681A69FB685B6AD2B21A70FB68A0
:102E30005B6A5A1CFB685A62FB681B8D013B9AB2A5
:102E4000FB681A85FB685B8D9BB2013B9AB2FB68FD
:102E50005A8562B600BFFB681B681A69FB685B6A2B
:102E6000D2B21A70FB685B6A5A1CFB685A62FB6834
:102E70001B8D013B9AB2FB681A85FB685B8D9BB288
:102E8000013B9AB2FB685A85EEE07B6A0093BB6B0C
:102E900000228149F86800F083FA0346002B01D034
:102EA0000123F5E0FB681B681A68FB681B6822F4C5
:102EB00080621A6072B600BFFB681B681A69FB6803
:102EC0005B6AD2B21A70FB685B6A5A1CFB685A6272
:102ED000FB681B8D013B9AB2FB681A85FB685B8D12
:102EE0009BB2013B9AB2FB685A856C4B1B68DB08AE
:102EF0006B4AA2FB03231A0A13469B001344DA0011
:102F0000D31A3B623B6A013B3B623B6A002B18D100
:102F1000FB6800221A63FB68202283F83D20FB68CF
:102F2000002283F83E20FB681B6C43F02002FB6804
:102F30001A6462B600BFFB68002283F83C200123BC
:102F4000A6E0FB681B685B6903F00403042BD9D17E
:102F5000FB681B681A68FB681B6842F400721A6001
:102F6000FB681B681A69FB685B6AD2B21A70FB685F
:102F70005B6A5A1CFB685A62FB681B8D013B9AB264
:102F8000FB681A85FB685B8D9BB2013B9AB2FB68BC
:102F90005A8562B600BFFB681B681A69FB685B6AEA
:102FA000D2B21A70FB685B6A5A1CFB685A62FB68F3
:102FB0001B8D013B9AB2FB681A85FB685B8D9BB247
:102FC000013B9AB2FB685A854EE07A6AB96BF868A1
:102FD00000F090FB0346002B01D0012358E0FB6872
:102FE0001B681A69FB685B6AD2B21A70FB685B6A7D
:102FF0005A1CFB685A62FB681B8D013B9AB2FB6846
:103000001A85FB685B8D9BB2013B9AB2FB685A85BF
:10301000FB681B685B6903F00403042B24D1FB6885
:103020001B8D032B07D1FB681B681A68FB681B68A4
:1030300022F480621A60FB681B681A69FB685B6A8D
:10304000D2B21A70FB685B6A5A1CFB685A62FB6852
:103050001B8D013B9AB2FB681A85FB685B8D9BB2A6
:10306000013B9AB2FB685A85FB681B8D002B7FF4ED
:1030700088AEFB68202283F83D20FB68002283F89D
:103080003E20FB68002283F83C20002300E002235E
:1030900018462837BD4680BD0400010024000020EA
:1030A00089B5F81480B588B002AFF86008461146BB
:1030B0001A4603467B810B463B811346FB80FB6827
:1030C0001B681A68FB681B6842F480721A607B6A8E
:1030D00000933B6A00224FF00111F86800F060F99C
:1030E0000346002B0DD0FB681B681B6803F480733C
:1030F000B3F5807F03D1FB684FF400721A64032399
:103100005FE07B89DBB21A46FB681B6802F0FE02B7
:103110001A617B6A3A6A2D49F86800F0BBF90346E8
:10312000002B01D001234CE000237B61FB681B686E
:103130005B697B61FB681B689B697B617B697A6A61
:10314000396AF86800F046FA0346002B0DD0FB6898
:103150001B6C042B07D1FB681B681A68FB681B6893
:1031600042F400721A6001232BE0FB88012B05D189
:103170003B89DAB2FB681B681A6121E03B891B0AB4
:103180009BB2DAB2FB681B681A617A6A396AF8681E
:1031900000F020FA0346002B0DD0FB681B6C042BBB
:1031A00007D1FB681B681A68FB681B6842F4007251
:1031B0001A60012305E03B89DAB2FB681B681A61DB
:1031C000002318461837BD4680BD00BF020001002D
:1031D00080B588B002AFF860084611461A4603462B
:1031E0007B810B463B811346FB80FB681B681A689A
:1031F000FB681B6842F480621A60FB681B681A68EF
:10320000FB681B6842F480721A607B6A00933B6A19
:1032100000224FF00111F86800F0C2F80346002BBD
:103220000DD0FB681B681B6803F48073B3F5807FC7
:1032300003D1FB684FF400721A640323AAE07B8970
:10324000DBB21A46FB681B6802F0FE021A617B6A59
:103250003A6A5249F86800F01DF90346002B01D084
:10326000012397E000237B61FB681B685B697B613E
:10327000FB681B689B697B617B697A6A396AF868BD
:1032800000F0A8F90346002B0DD0FB681B6C042B43
:1032900007D1FB681B681A68FB681B6842F4007260
:1032A0001A60012376E0FB88012B05D13B89DAB255
:1032B000FB681B681A6121E03B891B0A9BB2DAB2EA
:1032C000FB681B681A617A6A396AF86800F082F94B
:1032D0000346002B0DD0FB681B6C042B07D1FB6849
:1032E0001B681A68FB681B6842F400721A600123AD
:1032F00050E03B89DAB2FB681B681A617A6A396A66
:10330000F86800F067F90346002B0DD0FB681B6CD2
:10331000042B07D1FB681B681A68FB681B6842F422
:1033200000721A60012335E0FB681B681A68FB68AD
:103330001B6842F480721A607B6A00933B6A002229
:103340004FF00111F86800F02BF80346002B0DD068
:10335000FB681B681B6803F48073B3F5807F03D19F
:10336000FB684FF400721A64032313E07B89DBB21D
:1033700043F00103DAB2FB681B681A617B6A3A6AA0
:103380000649F86800F086F80346002B01D00123B7
:1033900000E0002318461837BD4680BD020001003A
:1033A00080B584B000AFF860B9603B601346FB7134
:1033B00048E03B68B3F1FF3F44D0FEF7E9FE024628
:1033C000BB69D31A3A689A4202D33B68002B39D1C1
:1033D000BB681B0CDBB2012B0DD1FB681B685B6962
:1033E000DA43BB6813409BB2002B0CBF01230023C0
:1033F000DBB21A460CE0FB681B689B69DA43BB68CA
:1034000013409BB2002B0CBF01230023DBB21A46F2
:10341000FB799A4216D1FB6800221A63FB682022CE
:1034200083F83D20FB68002283F83E20FB681B6C7C
:1034300043F02002FB681A64FB68002283F83C20FA
:10344000012323E0BB681B0CDBB2012B0DD1FB6811
:103450001B685B69DA43BB6813409BB2002B0CBF4F
:1034600001230023DBB21A460CE0FB681B689B6952
:10347000DA43BB6813409BB2002B0CBF012300232F
:10348000DBB21A46FB799A4293D0002318461037D4
:10349000BD4680BD80B584B000AFF860B9607A6089
:1034A0003B6071E0FB681B685B6903F48063B3F504
:1034B000806F23D1FB681B681A68FB681B6842F4A5
:1034C00000721A60FB681B686FF480625A61FB68C7
:1034D00000221A63FB68202283F83D20FB6800224B
:1034E00083F83E20FB681B6C43F00402FB681A64FF
:1034F000FB68002283F83C20012367E07B68B3F17E
:10350000FF3F41D0FEF744FE02463B68D31A7A687B
:103510009A4202D37B68002B36D1BB681B0CDBB20E
:10352000012B0CD1FB681B685B69DA43BB68134055
:103530009BB2002B14BF01230023DBB20BE0FB681E
:103540001B689B69DA43BB6813409BB2002B14BF16
:1035500001230023DBB2002B16D0FB6800221A6384
:10356000FB68202283F83D20FB68002283F83E2080
:10357000FB681B6C43F02002FB681A64FB680022A6
:1035800083F83C20012321E0BB681B0CDBB2012B3C
:103590000CD1FB681B685B69DA43BB6813409BB2C4
:1035A000002B14BF01230023DBB20BE0FB681B6878
:1035B0009B69DA43BB6813409BB2002B14BF012305
:1035C0000023DBB2002B7FF46DAF002318461037C9
:1035D000BD4680BD80B584B000AFF860B9607A6048
:1035E00034E0F86800F0E3F80346002B01D0012333
:1035F00034E0BB68B3F1FF3F28D0FEF7C9FD0246B7
:103600007B68D31ABA689A4202D3BB68002B1DD1DB
:10361000FB681B685B6903F08003802B16D0FB6896
:1036200000221A63FB68202283F83D20FB680022F9
:1036300083F83E20FB681B6C43F02002FB681A6491
:10364000FB68002283F83C20012307E0FB681B682D
:103650005B6903F08003802BC3D100231846103729
:10366000BD4680BD80B584B000AFF860B9607A60B7
:1036700034E0F86800F09BF80346002B01D00123EA
:1036800034E0BB68B3F1FF3F28D0FEF781FD02466E
:103690007B68D31ABA689A4202D3BB68002B1DD14B
:1036A000FB681B685B6903F00403042B16D0FB68FE
:1036B00000221A63FB68202283F83D20FB68002269
:1036C00083F83E20FB681B6C43F02002FB681A6401
:1036D000FB68002283F83C20012307E0FB681B689D
:1036E0005B6903F00403042BC3D100231846103791
:1036F000BD4680BD80B584B000AFF860B9607A6027
:1037000049E0FB681B685B6903F01003102B19D1BB
:10371000FB681B686FF010025A61FB6800221A6395
:10372000FB68202283F83D20FB68002283F83E20BE
:10373000FB681A6CFB681A64FB68002283F83C2063
:10374000012330E0FEF724FD02467B68D31ABA68F5
:103750009A4202D3BB68002B1DD1FB681B685B69D2
:1037600003F04003402B16D0FB6800221A63FB686D
:10377000202283F83D20FB68002283F83E20FB686E
:103780001B6C43F02002FB681A64FB68002283F87C
:103790003C20012307E0FB681B685B6903F04003E2
:1037A000402BAED1002318461037BD4680BD80B4F3
:1037B00083B000AF78607B681B685B6903F480634B
:1037C000B3F5806F1BD17B681B686FF480625A6110
:1037D0007B6800221A637B68202283F83D207B6887
:1037E000002283F83E207B681B6C43F004027B6858
:1037F0001A647B68002283F83C20012300E0002348
:1038000018460C37BD4680BC7047000080B586B0B6
:1038100000AF78607B68002B01D1012372E27B68E6
:103820001B6803F00103002B00F08780924B5B685C
:1038300003F00C03042B0CD08F4B5B6803F00C03DC
:10384000082B12D18C4B5B6803F48033B3F5803FB7
:103850000BD1894B1B6803F40033002B6CD07B68C1
:103860005B68002B68D101234CE27B685B68B3F591
:10387000803F06D1804B1B687F4A43F4803313603E
:103880002EE07B685B68002B0CD17B4B1B687A4A6F
:1038900023F480331360784B1B68774A23F480232A
:1038A00013601DE07B685B68B3F5A02F0CD1724BF1
:1038B0001B68714A43F4802313606F4B1B686E4A88
:1038C00043F4803313600BE06B4B1B686A4A23F4AC
:1038D00080331360684B1B68674A23F480231360AE
:1038E0007B685B68002B13D0FEF752FC386108E060
:1038F000FEF74EFC02463B69D31A642B01D9032321
:1039000000E25D4B1B6803F40033002BF0D014E0A1
:10391000FEF73EFC386108E0FEF73AFC02463B69E0
:10392000D31A642B01D90323ECE1534B1B6803F436
:103930000033002BF0D100E000BF7B681B6803F070
:103940000203002B63D04C4B5B6803F00C03002B8D
:103950000BD0494B5B6803F00C03082B1CD1464B82
:103960005B6803F48033002B16D1434B1B6803F0D4
:103970000203002B05D07B681B69012B01D00123BA
:10398000C0E13D4B1B6823F0F8027B685B69DB00FC
:10399000394913430B603AE07B681B69002B20D048
:1039A000364B01221A60FEF7F3FB386108E0FEF7A0
:1039B000EFFB02463B69D31A022B01D90323A1E195
:1039C0002D4B1B6803F00203002BF0D02A4B1B6821
:1039D00023F0F8027B685B69DB00274913430B6027
:1039E00015E0264B00221A60FEF7D2FB386108E092
:1039F000FEF7CEFB02463B69D31A022B01D9032303
:103A000080E11D4B1B6803F00203002BF0D17B68A3
:103A10001B6803F00803002B3AD07B689B69002BDE
:103A200019D0174B01221A60FEF7B2FB386108E08B
:103A3000FEF7AEFB02463B69D31A022B01D90323E2
:103A400060E10D4B5B6A03F00203002BF0D0012014
:103A500000F0BAFA1CE00A4B00221A60FEF798FB4D
:103A600038610FE0FEF794FB02463B69D31A022B44
:103A700008D9032346E100BF001002400000424283
:103A800080044242924B5B6A03F00203002BE9D1AF
:103A90007B681B6803F00403002B00F0A680002362
:103AA000FB758B4BDB6903F08053002B0DD1884BEA
:103AB000DB69874A43F08053D361854BDB6903F0B0
:103AC0008053BB60BB680123FB75824B1B6803F40A
:103AD0008073002B18D17F4B1B687E4A43F48073A0
:103AE0001360FEF755FB386108E0FEF751FB024614
:103AF0003B69D31A642B01D9032303E1754B1B687F
:103B000003F48073002BF0D07B68DB68012B06D1B7
:103B10006F4B1B6A6E4A43F0010313622DE07B6812
:103B2000DB68002B0CD16A4B1B6A694A23F0010346
:103B30001362674B1B6A664A23F0040313621CE09E
:103B40007B68DB68052B0CD1614B1B6A604A43F034
:103B5000040313625E4B1B6A5D4A43F00103136268
:103B60000BE05B4B1B6A5A4A23F001031362584B6C
:103B70001B6A574A23F0040313627B68DB68002B3F
:103B800015D0FEF705FB38610AE0FEF701FB02469F
:103B90003B69D31A41F28832934201D90323B1E041
:103BA0004B4B1B6A03F00203002BEED014E0FEF730
:103BB000EFFA38610AE0FEF7EBFA02463B69D31AE6
:103BC00041F28832934201D903239BE0404B1B6AA8
:103BD00003F00203002BEED1FB7D012B05D13C4B02
:103BE000DB693B4A23F08053D3617B68DB69002BA0
:103BF00000F08780364B5B6803F00C03082B61D024
:103C00007B68DB69022B46D1334B00221A60FEF73A
:103C1000BFFA386108E0FEF7BBFA02463B69D31AE7
:103C2000022B01D903236DE0294B1B6803F00073BD
:103C3000002BF0D17B681B6AB3F5803F08D1244B81
:103C40005B6823F400327B689B68214913434B6017
:103C50001F4B5B6823F474127B68196A7B685B6A8C
:103C60000B431B4913434B601B4B01221A60FEF7A9
:103C70008FFA386108E0FEF78BFA02463B69D31AE7
:103C8000022B01D903233DE0114B1B6803F00073A5
:103C9000002BF0D035E0104B00221A60FEF778FAC6
:103CA000386108E0FEF774FA02463B69D31A022B2A
:103CB00001D9032326E0064B1B6803F00073002B99
:103CC000F0D11EE07B68DB69012B07D1012319E0ED
:103CD0000010024000700040600042420B4B5B68E5
:103CE000FB60FB6803F480327B681B6A9A4206D152
:103CF000FB6803F470127B685B6A9A4201D001236F
:103D000000E0002318461837BD4680BD0010024071
:103D100080B584B000AF786039607B68002B01D13A
:103D20000123D0E06A4B1B6803F007033A689A420C
:103D300010D9674B1B6823F0070265493B681343A2
:103D40000B60634B1B6803F007033A689A4201D08B
:103D50000123B8E07B681B6803F00203002B20D02E
:103D60007B681B6803F00403002B05D0594B5B688C
:103D7000584A43F4E06353607B681B6803F0080310
:103D8000002B05D0534B5B68524A43F46053536099
:103D9000504B5B6823F0F0027B689B684D491343EE
:103DA0004B607B681B6803F00103002B40D07B68ED
:103DB0005B68012B07D1474B1B6803F40033002BD2
:103DC00015D101237FE07B685B68022B07D1414B53
:103DD0001B6803F00073002B09D1012373E03D4BF6
:103DE0001B6803F00203002B01D101236BE0394B68
:103DF0005B6823F003027B685B68364913434B60C2
:103E0000FEF7C6F9F8600AE0FEF7C2F90246FB6861
:103E1000D31A41F28832934201D9032353E02D4B48
:103E20005B6803F00C027B685B689B009A42EBD1F5
:103E3000274B1B6803F007033A689A4210D2244BC1
:103E40001B6823F0070222493B6813430B60204B99
:103E50001B6803F007033A689A4201D0012332E05D
:103E60007B681B6803F00403002B08D0194B5B68C8
:103E700023F4E0627B68DB68164913434B607B6880
:103E80001B6803F00803002B09D0124B5B6823F476
:103E900060527B681B69DB000E4913434B6000F0E6
:103EA00021F802460B4B5B681B0903F00F030A491C
:103EB000CB5C22FA03F3094A1360094B1B681846CE
:103EC000FEF724F9002318461037BD4680BD00BF19
:103ED0000020024000100240606100082400002021
:103EE0002800002080B487B000AF0023FB600023CF
:103EF000BB6000237B6100237B6000233B611E4B82
:103F00005B68FB60FB6803F00C03042B02D0082BFA
:103F100003D027E0194B3B6127E0FB689B0C03F0C3
:103F20000F03174AD35C7B60FB6803F48033002BDC
:103F300010D0114B5B685B0C03F00103114AD35C9A
:103F4000BB607B680D4A03FB02F2BB68B2FBF3F374
:103F50007B6104E07B680C4A02FB03F37B617B69B5
:103F60003B6102E0054B3B6100BF3B6918461C37D3
:103F7000BD4680BC704700BF0010024000127A00AE
:103F8000786100088861000800093D0080B400AF36
:103F9000024B1B681846BD4680BC704724000020B9
:103FA00080B500AFFFF7F2FF0246054B5B681B0AC6
:103FB00003F007030349CB5C22FA03F3184680BDE4
:103FC000001002407061000880B485B000AF7860D6
:103FD0000A4B1B680A4AA2FB03235B0A7A6802FBAE
:103FE00003F3FB6000BFFB685A1EFA60002BF9D197
:103FF00000BF00BF1437BD4680BC704724000020BE
:10400000D34D621080B582B000AF78607B68002B22
:1040100001D1012341E07B6893F83D30DBB2002BF6
:1040200006D17B68002283F83C207868FDF788FF82
:104030007B68022283F83D207B681A687B68043322
:104040001946104600F018FC7B68012283F84620D0
:104050007B68012283F83E207B68012283F83F20A1
:104060007B68012283F840207B68012283F841208D
:104070007B68012283F842207B68012283F8432079
:104080007B68012283F844207B68012283F8452065
:104090007B68012283F83D20002318460837BD467F
:1040A00080BD000080B485B000AF78607B6893F875
:1040B0003D30DBB2012B01D001233AE07B680222C4
:1040C00083F83D207B681B68DA687B681B6842F0D8
:1040D0000102DA607B681B68184A93420ED07B6845
:1040E0001B68B3F1804F09D07B681B68144A934268
:1040F00004D07B681B68134A934211D17B681B680C
:104100009B6803F00703FB60FB68062B10D07B68FD
:104110001B681A687B681B6842F001021A6007E09E
:104120007B681B681A687B681B6842F001021A6092
:10413000002318461437BD4680BC7047002C014050
:10414000000400400008004080B582B000AF7860F5
:104150007B68002B01D1012341E07B6893F83D305F
:10416000DBB2002B06D17B68002283F83C20786804
:1041700000F039F87B68022283F83D207B681A68DA
:104180007B6804331946104600F076FB7B680122F9
:1041900083F846207B68012283F83E207B68012259
:1041A00083F83F207B68012283F840207B6801224E
:1041B00083F841207B68012283F842207B6801223A
:1041C00083F843207B68012283F844207B68012226
:1041D00083F845207B68012283F83D2000231846A0
:1041E0000837BD4680BD80B483B000AF786000BFA3
:1041F0000C37BD4680BC704780B584B000AF786096
:1042000039603B68002B09D17B6893F83E30DBB204
:10421000012B14BF01230023DBB222E03B68042BF7
:1042200009D17B6893F83F30DBB2012B14BF012327
:104230000023DBB215E03B68082B09D17B6893F8BB
:104240004030DBB2012B14BF01230023DBB208E0B6
:104250007B6893F84130DBB2012B14BF01230023AC
:10426000DBB2002B01D001235EE03B68002B04D1C0
:104270007B68022283F83E2013E03B68042B04D1C4
:104280007B68022283F83F200BE03B68082B04D1B7
:104290007B68022283F8402003E07B68022283F8D7
:1042A00041207B681B6801223968184600F070FDC8
:1042B0007B681B681E4A934207D17B681B685A6C57
:1042C0007B681B6842F400425A647B681B68184A8A
:1042D00093420ED07B681B68B3F1804F09D07B6896
:1042E0001B68144A934204D07B681B68124A9342AD
:1042F00011D17B681B689B6803F00703FB60FB68B8
:10430000062B10D07B681B681A687B681B6842F01C
:1043100001021A6007E07B681B681A687B681B68EB
:1043200042F001021A60002318461037BD4680BDD6
:10433000002C0140000400400008004080B584B01B
:1043400000AF78607B681B68DB68FB607B681B687C
:104350001B69BB60BB6803F00203002B20D0FB6825
:1043600003F00203002B1BD07B681B686FF0020276
:104370001A617B6801221A777B681B689B6903F0CE
:104380000303002B03D0786800F05AFA05E0786840
:1043900000F04DFA786800F05CFA7B6800221A772A
:1043A000BB6803F00403002B20D0FB6803F0040378
:1043B000002B1BD07B681B686FF004021A617B68BE
:1043C00002221A777B681B689B6903F44073002BF9
:1043D00003D0786800F034FA05E0786800F027FA36
:1043E000786800F036FA7B6800221A77BB6803F021
:1043F0000803002B20D0FB6803F00803002B1BD020
:104400007B681B686FF008021A617B6804221A77C8
:104410007B681B68DB6903F00303002B03D078681B
:1044200000F00EFA05E0786800F001FA786800F014
:1044300010FA7B6800221A77BB6803F01003002B88
:1044400020D0FB6803F01003002B1BD07B681B6897
:104450006FF010021A617B6808221A777B681B686C
:10446000DB6903F44073002B03D0786800F0E8F9AF
:1044700005E0786800F0DBF9786800F0EAF97B681D
:1044800000221A77BB6803F00103002B0CD0FB68F5
:1044900003F00103002B07D07B681B686FF001025B
:1044A0001A617868FDF73CF8BB6803F08003002BC5
:1044B0000CD0FB6803F08003002B07D07B681B68DF
:1044C0006FF080021A61786800F03EFDBB6803F06F
:1044D0004003002B0CD0FB6803F04003002B07D0F7
:1044E0007B681B686FF040021A61786800F0BAF9C7
:1044F000BB6803F02003002B0CD0FB6803F0200303
:10450000002B07D07B681B686FF020021A61786867
:1045100000F011FD00BF1037BD4680BD80B586B0EC
:1045200000AFF860B9607A600023FB75FB6893F810
:104530003C30012B01D10223AEE0FB68012283F85D
:104540003C207B680C2B00F29F8001A252F823F0E4
:104550008545000889460008894600088946000804
:10456000C5450008894600088946000889460008B4
:104570000746000889460008894600088946000861
:1045800047460008FB681B68B968184600F0E2F966
:10459000FB681B689A69FB681B6842F008029A6115
:1045A000FB681B689A69FB681B6822F004029A6129
:1045B000FB681B689969BB681A69FB681B680A433A
:1045C0009A6164E0FB681B68B968184600F028FA35
:1045D000FB681B689A69FB681B6842F400629A6179
:1045E000FB681B689A69FB681B6822F480629A6109
:1045F000FB681B689969BB681B691A02FB681B682A
:104600000A439A6143E0FB681B68B968184600F0EA
:1046100071FAFB681B68DA69FB681B6842F00802E4
:10462000DA61FB681B68DA69FB681B6822F0040228
:10463000DA61FB681B68D969BB681A69FB681B688B
:104640000A43DA6123E0FB681B68B968184600F08A
:10465000BBFAFB681B68DA69FB681B6842F40062FE
:10466000DA61FB681B68DA69FB681B6822F4806208
:10467000DA61FB681B68D969BB681B691A02FB68B1
:104680001B680A43DA6102E00123FB7500BFFB6887
:10469000002283F83C20FB7D18461837BD4680BDBC
:1046A00080B584B000AF786039600023FB737B680D
:1046B00093F83C30012B01D10223B4E07B68012246
:1046C00083F83C207B68022283F83D207B681B68CE
:1046D0009B68BB60BB6823F07703BB60BB6823F4B7
:1046E0007F43BB607B681B68BA689A603B681B6845
:1046F000B3F5005F3ED0B3F5005F00F28780B3F5FD
:10470000805F00F08680B3F5805F7FD8702B1AD071
:10471000702B7BD8602B50D0602B77D8502B3CD09F
:10472000502B73D8402B58D0402B6FD8302B64D0EF
:10473000302B6BD8202B60D0202B67D8002B5CD07F
:10474000102B5AD062E07B6818683B6899683B6818
:104750005A683B68DB6800F0FCFA7B681B689B6862
:10476000BB60BB6843F07703BB607B681B68BA68BB
:104770009A604FE07B6818683B6899683B685A68A4
:104780003B68DB6800F0E5FA7B681B689A687B6829
:104790001B6842F480429A603CE07B6818683B6882
:1047A00059683B68DB681A4600F05CFA7B681B6856
:1047B0005021184600F0B3FA2CE07B6818683B687B
:1047C00059683B68DB681A4600F07AFA7B681B6818
:1047D0006021184600F0A3FA1CE07B6818683B686B
:1047E00059683B68DB681A4600F03CFA7B681B6836
:1047F0004021184600F093FA0CE07B681A683B6889
:104800001B681946104600F08AFA03E00123FB7387
:1048100000E000BF7B68012283F83D207B68002216
:1048200083F83C20FB7B18461037BD4680BD80B422
:1048300083B000AF786000BF0C37BD4680BC7047C6
:1048400080B483B000AF786000BF0C37BD4680BC39
:10485000704780B483B000AF786000BF0C37BD46AE
:1048600080BC704780B483B000AF786000BF0C3765
:10487000BD4680BC7047000080B485B000AF786052
:1048800039607B681B68FB607B682F4A93420BD0C2
:104890007B68B3F1804F07D07B682C4A934203D0EA
:1048A0007B682B4A934208D1FB6823F07003FB60BE
:1048B0003B685B68FA681343FB607B68224A93425B
:1048C0000BD07B68B3F1804F07D07B681F4A9342BF
:1048D00003D07B681E4A934208D1FB6823F44073DF
:1048E000FB603B68DB68FA681343FB60FB6823F0FE
:1048F00080023B685B691343FB607B68FA681A605F
:104900003B689A687B68DA623B681A687B689A62DF
:104910007B680D4A934203D13B681A697B681A632E
:104920007B6801225A617B681B6903F00103002B3D
:1049300005D07B681B6923F001027B681A6100BF08
:104940001437BD4680BC7047002C01400004004075
:104950000008004080B487B000AF786039607B68A1
:104960001B6A7B617B681B6A23F001027B681A6209
:104970007B685B683B617B689B69FB60FB6823F03D
:104980007003FB60FB6823F00303FB603B681B685C
:10499000FA681343FB607B6923F002037B613B6889
:1049A0009B687A6913437B617B681C4A93420CD1F4
:1049B0007B6923F008037B613B68DB687A691343FA
:1049C0007B617B6923F004037B617B68134A93421C
:1049D00011D13B6923F480733B613B6923F400737D
:1049E0003B613B685B693A6913433B613B689B6988
:1049F0003A6913433B617B683A695A607B68FA689D
:104A00009A613B685A687B685A637B687A691A6264
:104A100000BF1C37BD4680BC704700BF002C014062
:104A200080B487B000AF786039607B681B6A7B61B7
:104A30007B681B6A23F010027B681A627B685B68E4
:104A40003B617B689B69FB60FB6823F4E043FB6090
:104A5000FB6823F44073FB603B681B681B02FA6829
:104A60001343FB607B6923F020037B613B689B68F9
:104A70001B017A6913437B617B681D4A93420DD108
:104A80007B6923F080037B613B68DB681B017A69EB
:104A900013437B617B6923F040037B617B68144A8D
:104AA000934213D13B6923F480633B613B6923F458
:104AB00000633B613B685B699B003A6913433B6160
:104AC0003B689B699B003A6913433B617B683A6989
:104AD0005A607B68FA689A613B685A687B689A6397
:104AE0007B687A691A6200BF1C37BD4680BC70477C
:104AF000002C014080B487B000AF786039607B68DB
:104B00001B6A7B617B681B6A23F480727B681A6274
:104B10007B685B683B617B68DB69FB60FB6823F05B
:104B20007003FB60FB6823F00303FB603B681B68BA
:104B3000FA681343FB607B6923F400737B613B6875
:104B40009B681B027A6913437B617B681D4A934211
:104B50000DD17B6923F400637B613B68DB681B023A
:104B60007A6913437B617B6923F480637B617B6893
:104B7000144A934213D13B6923F480533B613B6950
:104B800023F400533B613B685B691B013A691343A3
:104B90003B613B689B691B013A6913433B617B683E
:104BA0003A695A607B68FA68DA613B685A687B68E0
:104BB000DA637B687A691A6200BF1C37BD4680BC25
:104BC000704700BF002C014080B487B000AF786010
:104BD00039607B681B6A3B617B681B6A23F48052E7
:104BE0007B681A627B685B687B617B68DB69FB6062
:104BF000FB6823F4E043FB60FB6823F44073FB6035
:104C00003B681B681B02FA681343FB603B6923F493
:104C100000533B613B689B681B033A6913433B614C
:104C20007B680F4A934209D17B6923F480437B61FF
:104C30003B685B699B017A6913437B617B687A6996
:104C40005A607B68FA68DA613B685A687B681A6464
:104C50007B683A691A6200BF1C37BD4680BC70474A
:104C6000002C014080B487B000AFF860B9607A6072
:104C7000FB681B6A7B61FB681B6A23F00102FB680F
:104C80001A62FB689B693B613B6923F0F0033B615F
:104C90007B681B013A6913433B617B6923F00A037C
:104CA0007B617A69BB6813437B61FB683A699A61EF
:104CB000FB687A691A6200BF1C37BD4680BC70472A
:104CC00080B487B000AFF860B9607A60FB681B6A97
:104CD0007B61FB681B6A23F01002FB681A62FB68A9
:104CE0009B693B613B6923F470433B617B681B0319
:104CF0003A6913433B617B6923F0A0037B61BB6886
:104D00001B017A6913437B61FB683A699A61FB680E
:104D10007A691A6200BF1C37BD4680BC704780B4F8
:104D200085B000AF786039607B689B68FB60FB688A
:104D300023F07003FB603A68FB68134343F00703FA
:104D4000FB607B68FA689A6000BF1437BD4680BC80
:104D5000704780B487B000AFF860B9607A603B609C
:104D6000FB689B687B617B6923F47F437B613B68C5
:104D70001A027B681A43BB6813437A6913437B6149
:104D8000FB687A699A6000BF1C37BD4680BC7047DB
:104D900080B487B000AFF860B9607A60BB6803F098
:104DA0001F03012202FA03F37B61FB681A6A7B6925
:104DB000DB431A40FB681A62FB681A6ABB6803F09F
:104DC0001F03796801FA03F31A43FB681A6200BFF4
:104DD0001C37BD4680BC704780B485B000AF78609A
:104DE00039607B6893F83C30012B01D1022346E007
:104DF0007B68012283F83C207B68022283F83D20F7
:104E00007B681B685B68FB607B681B689B68BB609A
:104E1000FB6823F07003FB603B681B68FA68134370
:104E2000FB607B681B68FA685A607B681B68164ADF
:104E300093420ED07B681B68B3F1804F09D07B682A
:104E40001B68124A934204D07B681B68104A934245
:104E50000CD1BB6823F08003BB603B685B68BA6819
:104E60001343BB607B681B68BA689A607B68012249
:104E700083F83D207B68002283F83C2000231846FD
:104E80001437BD4680BC7047002C01400004004030
:104E90000008004080B485B000AF7860396000231E
:104EA000FB607B6893F83C30012B01D102233DE08D
:104EB0007B68012283F83C20FB6823F0FF023B68FB
:104EC000DB681343FB60FB6823F440723B689B681C
:104ED0001343FB60FB6823F480623B685B68134309
:104EE000FB60FB6823F400623B681B681343FB60B4
:104EF000FB6823F480523B681B691343FB60FB682B
:104F000023F400523B685B691343FB60FB6823F4A6
:104F100080423B68DB691343FB607B681B68FA686F
:104F20005A647B68002283F83C200023184614371B
:104F3000BD4680BC704780B483B000AF786000BFCE
:104F40000C37BD4680BC704780B483B000AF78603A
:104F500000BF0C37BD4680BC7047034602449342F5
:104F600000D1704703F8011BF9E70000014B1868F6
:104F7000704700BF3000002070B500260C4D0D4C6E
:104F8000641BA410A64209D101F0DCF800260A4DEA
:104F90000A4C641BA410A64205D170BD55F8043B11
:104FA00098470136EEE755F8043B98470136F2E79B
:104FB0000062000800620008006200080462000845
:104FC0002DE9F84314461D468046894600F0F4FA60
:104FD000224606460F462B4620462946FBF70EFD85
:104FE000C8BB0022002340464946FBF7D5FCB8B1B8
:104FF0000022002320462946FBF7CEFC002841D1A1
:105000002046294600F0FCF928B300220023204660
:105010002946FBF7CBFCF0B1FFF7A8FF222319E0EC
:105020003046394600F0ECF9C8B94046494600F030
:10503000E7F9A0B12046294600F0E2F978B13246FE
:105040003B4630463946FBF7D9FC0028E4D0FFF751
:105050008DFF2123036030463946BDE8F8830022E6
:10506000002330463946FBF797FC0028F3D0404632
:10507000494600F0C5F90028EDD02046294600F049
:10508000BFF9C8E70026014FE5E700BF0000F03F89
:10509000F8B506460F4600F0B9F9324604460D460B
:1050A0003B4630463946FBF7A9FC90B90022002365
:1050B00030463946FBF77AFC58B1FFF757FF2123FA
:1050C00000220360002310461946FBF727FB044625
:1050D0000D4620462946F8BD2DE9F84FBC4B21F07E
:1050E00000469E4204460D468B4618D9B94B9E4257
:1050F00001D809D140B122462B4620462946FBF76C
:105100002DF804460D4606E0BBF1000F40F3238165
:1051100093A5D5E9004520462946BDE8F88FAE4B5A
:105120009E4211D8A3F1DE739E420AD88EA3D3E922
:105130000023FBF713F80022A84BFBF755FC0028CF
:10514000E9D14FF0FF3A27E000F056F9A44B0446AE
:105150009E420D4600F2B880A3F550239E4200F215
:105160009C8002460B46FAF7F9FF00229B4BFAF7A8
:10517000F3FF002206460F464FF0804320462946A3
:10518000FAF7ECFF02460B4630463946FBF7C6FA03
:105190004FF0000A04460D4622462B46204629467B
:1051A000FBF792F902460B4680468946FBF78CF9DD
:1051B0006FA3D3E9002306460F46FBF785F96EA3DC
:1051C000D3E90023FAF7CAFF32463B46FBF77CF9E6
:1051D0006BA3D3E90023FAF7C1FF32463B46FBF746
:1051E00073F969A3D3E90023FAF7B8FF32463B46C7
:1051F000FBF76AF966A3D3E90023FAF7AFFF32465B
:105200003B46FBF761F964A3D3E90023FAF7A6FF55
:1052100042464B46FBF758F961A3D3E90023804689
:10522000894630463946FBF74FF95FA3D3E900239F
:10523000FAF792FF32463B46FBF746F95CA3D3E907
:105240000023FAF789FF32463B46FBF73DF95AA3A4
:10525000D3E90023FAF780FF32463B46FBF734F9E7
:1052600057A3D3E90023FAF777FF32463B46FBF713
:105270002BF902460B4640464946FAF76FFF224695
:105280002B46FBF721F9BAF1FF3F02460B4644D10A
:1052900020462946FAF760FF33E700224F4BFAF722
:1052A0005BFF002206460F46204629464B4BFAF785
:1052B00055FF02460B4630463946FBF72FFA4FF0B2
:1052C000010A04460D4667E7464B9E421AD2002269
:1052D000454BFAF741FF002206460F462046294675
:1052E000414BFBF7F1F800223C4BFAF737FF02463F
:1052F0000B4630463946FBF711FA4FF0020A0446D6
:105300000D4649E702460B4600203849FBF706FAEE
:105310004FF0030A04460D463EE7354B354E03EB8E
:10532000CA03D3E90023FAF717FF22462B46FAF700
:1053300013FF06EBCA0602460B46D6E90001FAF750
:105340000BFFBBF1000F04460D46BFF6E4AE01F1C2
:1053500000431D46DFE61CA5D5E90045DBE600BF9E
:10536000182D4454FB21F93F9C7500883CE4377E9E
:1053700011DA22E33AAD903FEB0D76244B7BA93F47
:10538000513DD0A0660DB13F6E204CC5CD45B73F15
:10539000FF8300922449C23F0D5555555555D53FC1
:1053A0002F6C6A2C44B4A2BF9AFDDE522DDEAD3FB5
:1053B0006D9A74AFF2B0B33F711623FEC671BC3F55
:1053C000C4EB98999999C93F182D4454FB21F9BF12
:1053D000FFFF0F440000F07FFFFFDB3F0000F03FC6
:1053E000FFFFF23F008003400000F83F0000F0BFE5
:1053F00090610008B061000821F000431946704731
:1054000041F0004000F58010C00F7047674A2DE959
:10541000F84F8A4306460F460B4604460ED1024615
:10542000FBF752F802460B4630463946FAF796FE2D
:1054300006460F4630463946BDE8F88F00290CDC99
:1054400021F000420243F5D089B10246FAF784FE0A
:1054500002460B46FBF762F9EAE70A1515D100216F
:1054600009E0E30A153A6405002BFAD0F7E70A468B
:10547000FAE75B000131D802FBD5481E121AC1F1D0
:10548000200024FA00F003438C400026A2F2FF37EC
:105490001621D2074FF400103246C3F3130343F42E
:1054A00080135CBF5B0003EBD4734FEA430358BF28
:1054B000640003EBD4737F10640015189D42DEBFB7
:1054C0002A185B1B3618E50F013905EB43034FEA39
:1054D00044044FEA5000F0D10D464FF0200A4FF03F
:1054E00000409A4201EB000C02DB13D1A44511D815
:1054F000BCF1000F0CEB000142DA002940DB02F1A5
:10550000010E9B1A7246A44588BF03F1FF33A4EB3A
:105510000C0405444FEAD47CBAF1010A0CEB4303B6
:105520004FEA44044FEA5000DBD11C431AD0204C10
:10553000DFF880B0D4E90001DBE90023FAF70CFEC4
:10554000D4E9008902460B4640464946FBF738FA43
:1055500040B1D4E90001DBE90023B5F1FF3F11D1EF
:105560005546013672106B08F10702F17F5202F5C1
:10557000001248BF43F00043184602EB075157E7BB
:105580009646BEE7FAF7EAFDD4E9008902460B46E3
:1055900040464946FBF70AFA20B1A81C08BF01366D
:1055A0000235DFE76B1C23F00105DBE70000F07F2D
:1055B00088000020800000202DE9F04F91B0CDE957
:1055C00000238B46DDE9001828F00047824657EAA1
:1055D000010012D153468BF40022DB18524198424D
:1055E000914B934180F0CE84DDE90023504659462B
:1055F000FAF7B4FD11B0BDE8F08F8C4B2BF00046EC
:105600009E425D46D14607D802D1BAF1000FEBD1D8
:105610009F4201D80FD171B105F1404505F58015C4
:1056200055EA0905E0D1DDE90032DB1882F40022F9
:1056300052419D42D4E7002D334639DA7C4A9742E5
:105640004ED8A2F15472974240F2AB843A15A2F2BE
:10565000FF32142A0FDDC2F1340221FA02F404FAF7
:1056600002F28A4240F09D8404F00104C4F1020475
:1056700000295AD10EE0002956D1C2F1140247FA8E
:1056800002F404FA02F2BA4240F0888404F0010401
:10569000C4F10204674A974230D1B8F1000F80F29A
:1056A000798452465B4600206249FBF737F8A1E750
:1056B0000024002939D15D4A9742EBD106F14043DD
:1056C00003F5801353EA090300F05C845A4B9E42B1
:1056D00008D9B8F1000FC0F25984DDE9000189E76B
:1056E0000224E6E7B8F1000F4FF000004FF0000190
:1056F00080DADDE9000303F100417BE7B8F1804F78
:1057000006D152465B4650465946FAF7DDFE71E730
:105710004A4A904509D1002D07DB5046594611B041
:10572000BDE8F04FFFF772BE002450465946029381
:10573000FFF762FE029BB9F1000F27D13D4A25F029
:10574000404C944500D00EBBB8F1000F05DA02467C
:105750000B4600203749FAF7E1FF002DBFF64AAFAC
:1057600006F1404606F58016264308D102460B4650
:1057700010461946FAF7F0FC02460B4695E7012C55
:105780007FF438AF01F10043194633E7EA0F013ADD
:1057900052EA040C02D152465B46E9E74FF0000999
:1057A000013C144314BFDFF88CA0DFF894A0B7F1DC
:1057B000844FCDE9029A40F20781224B9F421E4B53
:1057C00013D99E4208D8B8F1000F08DA002011B0B2
:1057D000BDE8F04F00F0B0BCB8F1000FF6DC0020DF
:1057E00011B0BDE8F04F00F0A2BC9E420CD2DDE942
:1057F000020100220023FBF7D9F8003818BF01206E
:10580000B8F1000FECDAE2E70A4B00229E421BD906
:10581000DDE902010023FBF7C9F8003818BF0120B9
:10582000B8F1000FD3DCDBE70000F0FF0000F07FF1
:10583000FFFF3F430000F03FFFFFEF3F0000E03F6E
:105840000000F0BF0000F0435B4BFAF785FC52A369
:10585000D3E9002304460D46FAF736FE50A3D3E9F8
:10586000002306460F4620462946FAF72DFE002261
:1058700082468B4620462946504BFAF725FE0246C3
:105880000B4649A1D1E90001FAF766FC22462B46F6
:10589000FAF71AFE02460B4600204949FAF75CFC6B
:1058A0002246804689462B4620462946FAF70CFEBA
:1058B00002460B4640464946FAF706FE3CA3D3E9AA
:1058C0000023FAF701FE02460B4650465946FAF706
:1058D00043FC002402460B46804689463046394642
:1058E000FAF73CFC32463B4620460D46FAF734FCBC
:1058F00002460B4640464946FAF72EFCDDE90023F6
:10590000CDE9042300230493DDE904AB06460F46EA
:10591000DDE9000152465B46FAF71EFC22462B46A3
:10592000FAF7D2FDDDE90023804689463046394644
:10593000FAF7CAFD02460B4640464946FAF70EFC06
:1059400052465B4606460F4620462946FAF7BCFDFE
:105950000B4602468046894630463946FAF7FEFB3A
:10596000184B044699420D468A468B4640F3E08226
:1059700001F13F4303F5E003034300F0DF81DDE97C
:10598000020100220023FBF711F8003818BF0120A4
:105990001DE700BFAFF30080000000604715F73F30
:1059A00044DF5DF80BAE543E555555555555D53F22
:1059B000FE822B654715F73F0000F03F0000D03F07
:1059C0000000E03FFFFF8F40D34A2A40002A40F00A
:1059D0007A81D24B0022FAF777FD6FF034040B4640
:1059E0001A15A2F2FF3222440A92CD4AC3F31303DE
:1059F00043F07F55934245F4401508DDC94A934270
:105A000040F363810A9BA5F5801501330A930026B4
:105A1000F3000B93C44B294603EBC603D3E90034D0
:105A20001A46CDE9083423468246FAF795FB5246DA
:105A30002B46CDE90C01DDE90801FAF78FFB0246A0
:105A40000B460020B949FAF769FE02460B46CDE93C
:105A50000E01DDE90C01FAF737FDCDE90601DDE9BC
:105A60000634CDE9043400230022AB466D1045F026
:105A70000055049305F50025DDE9048905EB86430F
:105A80004046494614461D46FAF71EFD02460B469F
:105A9000DDE90C01FAF760FBDDE9082306460F4655
:105AA00020462946FAF758FB02460B46504659460F
:105AB000FAF752FB42464B46FAF706FD02460B4602
:105AC00030463946FAF748FBDDE90E23FAF7FCFCCD
:105AD000DDE90623CDE9080110461946FAF7F4FC82
